{
  "_format": "hh-sol-artifact-1",
  "contractName": "Voting",
  "sourceName": "contracts/Lock.sol",
  "abi": [
    {
      "inputs": [],
      "stateMutability": "nonpayable",
      "type": "constructor"
    },
    {
      "inputs": [
        {
          "internalType": "address",
          "name": "owner",
          "type": "address"
        }
      ],
      "name": "OwnableInvalidOwner",
      "type": "error"
    },
    {
      "inputs": [
        {
          "internalType": "address",
          "name": "account",
          "type": "address"
        }
      ],
      "name": "OwnableUnauthorizedAccount",
      "type": "error"
    },
    {
      "anonymous": false,
      "inputs": [
        {
          "indexed": false,
          "internalType": "uint256",
          "name": "candidateId",
          "type": "uint256"
        },
        {
          "indexed": false,
          "internalType": "string",
          "name": "name",
          "type": "string"
        },
        {
          "indexed": false,
          "internalType": "address",
          "name": "candidateAddress",
          "type": "address"
        },
        {
          "indexed": false,
          "internalType": "address",
          "name": "tokenAddress",
          "type": "address"
        },
        {
          "indexed": false,
          "internalType": "uint256",
          "name": "transferAmount",
          "type": "uint256"
        }
      ],
      "name": "CandidateAdded",
      "type": "event"
    },
    {
      "anonymous": false,
      "inputs": [
        {
          "indexed": true,
          "internalType": "address",
          "name": "previousOwner",
          "type": "address"
        },
        {
          "indexed": true,
          "internalType": "address",
          "name": "newOwner",
          "type": "address"
        }
      ],
      "name": "OwnershipTransferred",
      "type": "event"
    },
    {
      "anonymous": false,
      "inputs": [
        {
          "indexed": false,
          "internalType": "address",
          "name": "tokenAddress",
          "type": "address"
        },
        {
          "indexed": false,
          "internalType": "string",
          "name": "name",
          "type": "string"
        },
        {
          "indexed": false,
          "internalType": "string",
          "name": "symbol",
          "type": "string"
        },
        {
          "indexed": false,
          "internalType": "uint256",
          "name": "initialSupply",
          "type": "uint256"
        }
      ],
      "name": "TokenCreated",
      "type": "event"
    },
    {
      "anonymous": false,
      "inputs": [
        {
          "indexed": true,
          "internalType": "address",
          "name": "sender",
          "type": "address"
        },
        {
          "indexed": true,
          "internalType": "uint256",
          "name": "candidateId",
          "type": "uint256"
        },
        {
          "indexed": false,
          "internalType": "uint256",
          "name": "amount",
          "type": "uint256"
        }
      ],
      "name": "TokenSent",
      "type": "event"
    },
    {
      "anonymous": false,
      "inputs": [
        {
          "indexed": true,
          "internalType": "address",
          "name": "voter",
          "type": "address"
        },
        {
          "indexed": true,
          "internalType": "uint256",
          "name": "candidateId",
          "type": "uint256"
        }
      ],
      "name": "Voted",
      "type": "event"
    },
    {
      "inputs": [
        {
          "internalType": "string",
          "name": "_name",
          "type": "string"
        },
        {
          "internalType": "contract VotingToken",
          "name": "_token",
          "type": "address"
        },
        {
          "internalType": "uint256",
          "name": "_transferAmount",
          "type": "uint256"
        }
      ],
      "name": "addCandidate",
      "outputs": [],
      "stateMutability": "nonpayable",
      "type": "function"
    },
    {
      "inputs": [
        {
          "internalType": "uint256",
          "name": "",
          "type": "uint256"
        }
      ],
      "name": "candidates",
      "outputs": [
        {
          "internalType": "uint256",
          "name": "id",
          "type": "uint256"
        },
        {
          "internalType": "string",
          "name": "name",
          "type": "string"
        },
        {
          "internalType": "address",
          "name": "candidateAddress",
          "type": "address"
        },
        {
          "internalType": "uint256",
          "name": "voteCount",
          "type": "uint256"
        },
        {
          "internalType": "contract VotingToken",
          "name": "token",
          "type": "address"
        },
        {
          "internalType": "uint256",
          "name": "transferAmount",
          "type": "uint256"
        }
      ],
      "stateMutability": "view",
      "type": "function"
    },
    {
      "inputs": [],
      "name": "candidatesCount",
      "outputs": [
        {
          "internalType": "uint256",
          "name": "",
          "type": "uint256"
        }
      ],
      "stateMutability": "view",
      "type": "function"
    },
    {
      "inputs": [
        {
          "internalType": "string",
          "name": "name",
          "type": "string"
        },
        {
          "internalType": "string",
          "name": "symbol",
          "type": "string"
        },
        {
          "internalType": "uint256",
          "name": "initialSupply",
          "type": "uint256"
        },
        {
          "internalType": "uint8",
          "name": "decimal",
          "type": "uint8"
        }
      ],
      "name": "createToken",
      "outputs": [
        {
          "internalType": "contract VotingToken",
          "name": "",
          "type": "address"
        }
      ],
      "stateMutability": "nonpayable",
      "type": "function"
    },
    {
      "inputs": [],
      "name": "getCandidates",
      "outputs": [
        {
          "components": [
            {
              "internalType": "uint256",
              "name": "id",
              "type": "uint256"
            },
            {
              "internalType": "string",
              "name": "name",
              "type": "string"
            },
            {
              "internalType": "address",
              "name": "candidateAddress",
              "type": "address"
            },
            {
              "internalType": "uint256",
              "name": "voteCount",
              "type": "uint256"
            },
            {
              "internalType": "contract VotingToken",
              "name": "token",
              "type": "address"
            },
            {
              "internalType": "uint256",
              "name": "transferAmount",
              "type": "uint256"
            }
          ],
          "internalType": "struct Voting.Candidate[]",
          "name": "",
          "type": "tuple[]"
        }
      ],
      "stateMutability": "view",
      "type": "function"
    },
    {
      "inputs": [],
      "name": "owner",
      "outputs": [
        {
          "internalType": "address",
          "name": "",
          "type": "address"
        }
      ],
      "stateMutability": "view",
      "type": "function"
    },
    {
      "inputs": [],
      "name": "registerVoter",
      "outputs": [],
      "stateMutability": "nonpayable",
      "type": "function"
    },
    {
      "inputs": [
        {
          "internalType": "address",
          "name": "",
          "type": "address"
        }
      ],
      "name": "registeredVoters",
      "outputs": [
        {
          "internalType": "bool",
          "name": "",
          "type": "bool"
        }
      ],
      "stateMutability": "view",
      "type": "function"
    },
    {
      "inputs": [],
      "name": "renounceOwnership",
      "outputs": [],
      "stateMutability": "nonpayable",
      "type": "function"
    },
    {
      "inputs": [
        {
          "internalType": "uint256",
          "name": "_amount",
          "type": "uint256"
        },
        {
          "internalType": "uint256",
          "name": "_candidateId",
          "type": "uint256"
        }
      ],
      "name": "sendTokenToVoteContract",
      "outputs": [],
      "stateMutability": "nonpayable",
      "type": "function"
    },
    {
      "inputs": [
        {
          "internalType": "address",
          "name": "newOwner",
          "type": "address"
        }
      ],
      "name": "transferOwnership",
      "outputs": [],
      "stateMutability": "nonpayable",
      "type": "function"
    },
    {
      "inputs": [
        {
          "internalType": "uint256",
          "name": "_candidateId",
          "type": "uint256"
        }
      ],
      "name": "vote",
      "outputs": [],
      "stateMutability": "nonpayable",
      "type": "function"
    },
    {
      "inputs": [
        {
          "internalType": "address",
          "name": "",
          "type": "address"
        }
      ],
      "name": "voters",
      "outputs": [
        {
          "internalType": "bool",
          "name": "",
          "type": "bool"
        }
      ],
      "stateMutability": "view",
      "type": "function"
    }
  ],
  "bytecode": "0x608060405234801561001057600080fd5b5033600073ffffffffffffffffffffffffffffffffffffffff168173ffffffffffffffffffffffffffffffffffffffff16036100845760006040517f1e4fbdf700000000000000000000000000000000000000000000000000000000815260040161007b919061019e565b60405180910390fd5b6100938161009960201b60201c565b506101b9565b60008060009054906101000a900473ffffffffffffffffffffffffffffffffffffffff169050816000806101000a81548173ffffffffffffffffffffffffffffffffffffffff021916908373ffffffffffffffffffffffffffffffffffffffff1602179055508173ffffffffffffffffffffffffffffffffffffffff168173ffffffffffffffffffffffffffffffffffffffff167f8be0079c531659141344cd1fd0a4f28419497f9722a3daafe3b4186f6b6457e060405160405180910390a35050565b600073ffffffffffffffffffffffffffffffffffffffff82169050919050565b60006101888261015d565b9050919050565b6101988161017d565b82525050565b60006020820190506101b3600083018461018f565b92915050565b6141ef806101c86000396000f3fe608060405234801561001057600080fd5b50600436106100cf5760003560e01c8063715018a61161008c578063a9ff6df111610066578063a9ff6df1146101f1578063b64acddd14610221578063ecb617d914610251578063f2fde38b1461025b576100cf565b8063715018a6146101995780638da5cb5b146101a3578063a3ec138d146101c1576100cf565b80630121b93f146100d457806306a49fce146100f057806322f7195c1461010e5780632d35a8a21461012a5780633477ee2e14610148578063513f71551461017d575b600080fd5b6100ee60048036038101906100e9919061143a565b610277565b005b6100f86106e8565b60405161010591906116f1565b60405180910390f35b61012860048036038101906101239190611886565b610913565b005b610132610aa7565b60405161013f9190611904565b60405180910390f35b610162600480360381019061015d919061143a565b610aad565b60405161017496959493929190611987565b60405180910390f35b610197600480360381019061019291906119ef565b610bb1565b005b6101a1610fba565b005b6101ab610fce565b6040516101b89190611a2f565b60405180910390f35b6101db60048036038101906101d69190611a76565b610ff7565b6040516101e89190611abe565b60405180910390f35b61020b60048036038101906102069190611a76565b611017565b6040516102189190611abe565b60405180910390f35b61023b60048036038101906102369190611b12565b611037565b6040516102489190611bb1565b60405180910390f35b6102596110c1565b005b61027560048036038101906102709190611a76565b6111a8565b005b600360003373ffffffffffffffffffffffffffffffffffffffff1673ffffffffffffffffffffffffffffffffffffffff16815260200190815260200160002060009054906101000a900460ff16610303576040517f08c379a00000000000000000000000000000000000000000000000000000000081526004016102fa90611c18565b60405180910390fd5b600260003373ffffffffffffffffffffffffffffffffffffffff1673ffffffffffffffffffffffffffffffffffffffff16815260200190815260200160002060009054906101000a900460ff1615610390576040517f08c379a000000000000000000000000000000000000000000000000000000000815260040161038790611c84565b60405180910390fd5b6000811180156103a257506004548111155b6103e1576040517f08c379a00000000000000000000000000000000000000000000000000000000081526004016103d890611cf0565b60405180910390fd5b600060016000838152602001908152602001600020905080600301600081548092919061040d90611d3f565b919050555060008160040160009054906101000a900473ffffffffffffffffffffffffffffffffffffffff1673ffffffffffffffffffffffffffffffffffffffff1663313ce5676040518163ffffffff1660e01b8152600401602060405180830381865afa158015610483573d6000803e3d6000fd5b505050506040513d601f19601f820116820180604052508101906104a79190611d9c565b600a6104b39190611efc565b82600501546104c29190611f47565b9050808260040160009054906101000a900473ffffffffffffffffffffffffffffffffffffffff1673ffffffffffffffffffffffffffffffffffffffff166370a08231306040518263ffffffff1660e01b81526004016105229190611a2f565b602060405180830381865afa15801561053f573d6000803e3d6000fd5b505050506040513d601f19601f820116820180604052508101906105639190611f9e565b10156105a4576040517f08c379a000000000000000000000000000000000000000000000000000000000815260040161059b9061203d565b60405180910390fd5b8160040160009054906101000a900473ffffffffffffffffffffffffffffffffffffffff1673ffffffffffffffffffffffffffffffffffffffff1663a9059cbb33836040518363ffffffff1660e01b815260040161060392919061205d565b6020604051808303816000875af1158015610622573d6000803e3d6000fd5b505050506040513d601f19601f8201168201806040525081019061064691906120b2565b506001600260003373ffffffffffffffffffffffffffffffffffffffff1673ffffffffffffffffffffffffffffffffffffffff16815260200190815260200160002060006101000a81548160ff021916908315150217905550823373ffffffffffffffffffffffffffffffffffffffff167f4d99b957a2bc29a30ebd96a7be8e68fe50a3c701db28a91436490b7d53870ca460405160405180910390a3505050565b6060600060045467ffffffffffffffff8111156107085761070761171d565b5b60405190808252806020026020018201604052801561074157816020015b61072e611381565b8152602001906001900390816107265790505b5090506000600190505b600454811161090b57600160008281526020019081526020016000206040518060c00160405290816000820154815260200160018201805461078c9061210e565b80601f01602080910402602001604051908101604052809291908181526020018280546107b89061210e565b80156108055780601f106107da57610100808354040283529160200191610805565b820191906000526020600020905b8154815290600101906020018083116107e857829003601f168201915b505050505081526020016002820160009054906101000a900473ffffffffffffffffffffffffffffffffffffffff1673ffffffffffffffffffffffffffffffffffffffff1673ffffffffffffffffffffffffffffffffffffffff168152602001600382015481526020016004820160009054906101000a900473ffffffffffffffffffffffffffffffffffffffff1673ffffffffffffffffffffffffffffffffffffffff1673ffffffffffffffffffffffffffffffffffffffff168152602001600582015481525050826001836108dc919061213f565b815181106108ed576108ec612173565b5b6020026020010181905250808061090390611d3f565b91505061074b565b508091505090565b6004600081548092919061092690611d3f565b91905055506040518060c0016040528060045481526020018481526020013373ffffffffffffffffffffffffffffffffffffffff168152602001600081526020018373ffffffffffffffffffffffffffffffffffffffff168152602001828152506001600060045481526020019081526020016000206000820151816000015560208201518160010190816109bb9190612344565b5060408201518160020160006101000a81548173ffffffffffffffffffffffffffffffffffffffff021916908373ffffffffffffffffffffffffffffffffffffffff1602179055506060820151816003015560808201518160040160006101000a81548173ffffffffffffffffffffffffffffffffffffffff021916908373ffffffffffffffffffffffffffffffffffffffff16021790555060a082015181600501559050507fb84310c6bb026def586cd9a9e2b54a0cee433a2e3285811c237b0b2ea53b5ece60045484338585604051610a9a959493929190612416565b60405180910390a1505050565b60045481565b6001602052806000526040600020600091509050806000015490806001018054610ad69061210e565b80601f0160208091040260200160405190810160405280929190818152602001828054610b029061210e565b8015610b4f5780601f10610b2457610100808354040283529160200191610b4f565b820191906000526020600020905b815481529060010190602001808311610b3257829003601f168201915b5050505050908060020160009054906101000a900473ffffffffffffffffffffffffffffffffffffffff16908060030154908060040160009054906101000a900473ffffffffffffffffffffffffffffffffffffffff16908060050154905086565b60008111610bf4576040517f08c379a0000000000000000000000000000000000000000000000000000000008152600401610beb906124bc565b60405180910390fd5b600454811115610c39576040517f08c379a0000000000000000000000000000000000000000000000000000000008152600401610c3090611cf0565b60405180910390fd5b600060016000838152602001908152602001600020905060008160040160009054906101000a900473ffffffffffffffffffffffffffffffffffffffff1673ffffffffffffffffffffffffffffffffffffffff1663313ce5676040518163ffffffff1660e01b8152600401602060405180830381865afa158015610cc1573d6000803e3d6000fd5b505050506040513d601f19601f82011682018060405250810190610ce59190611d9c565b600a610cf19190611efc565b84610cfc9190611f47565b9050808260040160009054906101000a900473ffffffffffffffffffffffffffffffffffffffff1673ffffffffffffffffffffffffffffffffffffffff1663dd62ed3e33306040518363ffffffff1660e01b8152600401610d5e9291906124dc565b602060405180830381865afa158015610d7b573d6000803e3d6000fd5b505050506040513d601f19601f82011682018060405250810190610d9f9190611f9e565b1015610de0576040517f08c379a0000000000000000000000000000000000000000000000000000000008152600401610dd790612577565b60405180910390fd5b808260040160009054906101000a900473ffffffffffffffffffffffffffffffffffffffff1673ffffffffffffffffffffffffffffffffffffffff166370a08231336040518263ffffffff1660e01b8152600401610e3e9190611a2f565b602060405180830381865afa158015610e5b573d6000803e3d6000fd5b505050506040513d601f19601f82011682018060405250810190610e7f9190611f9e565b1015610ec0576040517f08c379a0000000000000000000000000000000000000000000000000000000008152600401610eb7906125e3565b60405180910390fd5b8160040160009054906101000a900473ffffffffffffffffffffffffffffffffffffffff1673ffffffffffffffffffffffffffffffffffffffff166323b872dd3330846040518463ffffffff1660e01b8152600401610f2193929190612603565b6020604051808303816000875af1158015610f40573d6000803e3d6000fd5b505050506040513d601f19601f82011682018060405250810190610f6491906120b2565b50823373ffffffffffffffffffffffffffffffffffffffff167f0d13f5da5576e17f3ca76b16a95ca407faceadd9018e0087d32c2ba88e113e9783604051610fac9190611904565b60405180910390a350505050565b610fc261122e565b610fcc60006112b5565b565b60008060009054906101000a900473ffffffffffffffffffffffffffffffffffffffff16905090565b60026020528060005260406000206000915054906101000a900460ff1681565b60036020528060005260406000206000915054906101000a900460ff1681565b600080858585853360405161104b906113e3565b611059959493929190612649565b604051809103906000f080158015611075573d6000803e3d6000fd5b5090507f75d1eb2d61d7e210835bc16e78ac4d0e4f905c108a81852a6b68c4d46b4f40f3818787876040516110ad94939291906126aa565b60405180910390a180915050949350505050565b600360003373ffffffffffffffffffffffffffffffffffffffff1673ffffffffffffffffffffffffffffffffffffffff16815260200190815260200160002060009054906101000a900460ff161561114e576040517f08c379a000000000000000000000000000000000000000000000000000000000815260040161114590612749565b60405180910390fd5b6001600360003373ffffffffffffffffffffffffffffffffffffffff1673ffffffffffffffffffffffffffffffffffffffff16815260200190815260200160002060006101000a81548160ff021916908315150217905550565b6111b061122e565b600073ffffffffffffffffffffffffffffffffffffffff168173ffffffffffffffffffffffffffffffffffffffff16036112225760006040517f1e4fbdf70000000000000000000000000000000000000000000000000000000081526004016112199190611a2f565b60405180910390fd5b61122b816112b5565b50565b611236611379565b73ffffffffffffffffffffffffffffffffffffffff16611254610fce565b73ffffffffffffffffffffffffffffffffffffffff16146112b357611277611379565b6040517f118cdaa70000000000000000000000000000000000000000000000000000000081526004016112aa9190611a2f565b60405180910390fd5b565b60008060009054906101000a900473ffffffffffffffffffffffffffffffffffffffff169050816000806101000a81548173ffffffffffffffffffffffffffffffffffffffff021916908373ffffffffffffffffffffffffffffffffffffffff1602179055508173ffffffffffffffffffffffffffffffffffffffff168173ffffffffffffffffffffffffffffffffffffffff167f8be0079c531659141344cd1fd0a4f28419497f9722a3daafe3b4186f6b6457e060405160405180910390a35050565b600033905090565b6040518060c001604052806000815260200160608152602001600073ffffffffffffffffffffffffffffffffffffffff16815260200160008152602001600073ffffffffffffffffffffffffffffffffffffffff168152602001600081525090565b611a508061276a83390190565b6000604051905090565b600080fd5b600080fd5b6000819050919050565b61141781611404565b811461142257600080fd5b50565b6000813590506114348161140e565b92915050565b6000602082840312156114505761144f6113fa565b5b600061145e84828501611425565b91505092915050565b600081519050919050565b600082825260208201905092915050565b6000819050602082019050919050565b61149c81611404565b82525050565b600081519050919050565b600082825260208201905092915050565b60005b838110156114dc5780820151818401526020810190506114c1565b60008484015250505050565b6000601f19601f8301169050919050565b6000611504826114a2565b61150e81856114ad565b935061151e8185602086016114be565b611527816114e8565b840191505092915050565b600073ffffffffffffffffffffffffffffffffffffffff82169050919050565b600061155d82611532565b9050919050565b61156d81611552565b82525050565b6000819050919050565b600061159861159361158e84611532565b611573565b611532565b9050919050565b60006115aa8261157d565b9050919050565b60006115bc8261159f565b9050919050565b6115cc816115b1565b82525050565b600060c0830160008301516115ea6000860182611493565b506020830151848203602086015261160282826114f9565b91505060408301516116176040860182611564565b50606083015161162a6060860182611493565b50608083015161163d60808601826115c3565b5060a083015161165060a0860182611493565b508091505092915050565b600061166783836115d2565b905092915050565b6000602082019050919050565b600061168782611467565b6116918185611472565b9350836020820285016116a385611483565b8060005b858110156116df57848403895281516116c0858261165b565b94506116cb8361166f565b925060208a019950506001810190506116a7565b50829750879550505050505092915050565b6000602082019050818103600083015261170b818461167c565b905092915050565b600080fd5b600080fd5b7f4e487b7100000000000000000000000000000000000000000000000000000000600052604160045260246000fd5b611755826114e8565b810181811067ffffffffffffffff821117156117745761177361171d565b5b80604052505050565b60006117876113f0565b9050611793828261174c565b919050565b600067ffffffffffffffff8211156117b3576117b261171d565b5b6117bc826114e8565b9050602081019050919050565b82818337600083830152505050565b60006117eb6117e684611798565b61177d565b90508281526020810184848401111561180757611806611718565b5b6118128482856117c9565b509392505050565b600082601f83011261182f5761182e611713565b5b813561183f8482602086016117d8565b91505092915050565b600061185382611552565b9050919050565b61186381611848565b811461186e57600080fd5b50565b6000813590506118808161185a565b92915050565b60008060006060848603121561189f5761189e6113fa565b5b600084013567ffffffffffffffff8111156118bd576118bc6113ff565b5b6118c98682870161181a565b93505060206118da86828701611871565b92505060406118eb86828701611425565b9150509250925092565b6118fe81611404565b82525050565b600060208201905061191960008301846118f5565b92915050565b600082825260208201905092915050565b600061193b826114a2565b611945818561191f565b93506119558185602086016114be565b61195e816114e8565b840191505092915050565b61197281611552565b82525050565b611981816115b1565b82525050565b600060c08201905061199c60008301896118f5565b81810360208301526119ae8188611930565b90506119bd6040830187611969565b6119ca60608301866118f5565b6119d76080830185611978565b6119e460a08301846118f5565b979650505050505050565b60008060408385031215611a0657611a056113fa565b5b6000611a1485828601611425565b9250506020611a2585828601611425565b9150509250929050565b6000602082019050611a446000830184611969565b92915050565b611a5381611552565b8114611a5e57600080fd5b50565b600081359050611a7081611a4a565b92915050565b600060208284031215611a8c57611a8b6113fa565b5b6000611a9a84828501611a61565b91505092915050565b60008115159050919050565b611ab881611aa3565b82525050565b6000602082019050611ad36000830184611aaf565b92915050565b600060ff82169050919050565b611aef81611ad9565b8114611afa57600080fd5b50565b600081359050611b0c81611ae6565b92915050565b60008060008060808587031215611b2c57611b2b6113fa565b5b600085013567ffffffffffffffff811115611b4a57611b496113ff565b5b611b568782880161181a565b945050602085013567ffffffffffffffff811115611b7757611b766113ff565b5b611b838782880161181a565b9350506040611b9487828801611425565b9250506060611ba587828801611afd565b91505092959194509250565b6000602082019050611bc66000830184611978565b92915050565b7f596f7520617265206e6f74207265676973746572656420746f20766f74652e00600082015250565b6000611c02601f8361191f565b9150611c0d82611bcc565b602082019050919050565b60006020820190508181036000830152611c3181611bf5565b9050919050565b7f596f75206861766520616c726561647920766f7465642e000000000000000000600082015250565b6000611c6e60178361191f565b9150611c7982611c38565b602082019050919050565b60006020820190508181036000830152611c9d81611c61565b9050919050565b7f496e76616c69642063616e6469646174652049442e0000000000000000000000600082015250565b6000611cda60158361191f565b9150611ce582611ca4565b602082019050919050565b60006020820190508181036000830152611d0981611ccd565b9050919050565b7f4e487b7100000000000000000000000000000000000000000000000000000000600052601160045260246000fd5b6000611d4a82611404565b91507fffffffffffffffffffffffffffffffffffffffffffffffffffffffffffffffff8203611d7c57611d7b611d10565b5b600182019050919050565b600081519050611d9681611ae6565b92915050565b600060208284031215611db257611db16113fa565b5b6000611dc084828501611d87565b91505092915050565b60008160011c9050919050565b6000808291508390505b6001851115611e2057808604811115611dfc57611dfb611d10565b5b6001851615611e0b5780820291505b8081029050611e1985611dc9565b9450611de0565b94509492505050565b600082611e395760019050611ef5565b81611e475760009050611ef5565b8160018114611e5d5760028114611e6757611e96565b6001915050611ef5565b60ff841115611e7957611e78611d10565b5b8360020a915084821115611e9057611e8f611d10565b5b50611ef5565b5060208310610133831016604e8410600b8410161715611ecb5782820a905083811115611ec657611ec5611d10565b5b611ef5565b611ed88484846001611dd6565b92509050818404811115611eef57611eee611d10565b5b81810290505b9392505050565b6000611f0782611404565b9150611f1283611ad9565b9250611f3f7fffffffffffffffffffffffffffffffffffffffffffffffffffffffffffffffff8484611e29565b905092915050565b6000611f5282611404565b9150611f5d83611404565b9250828202611f6b81611404565b91508282048414831517611f8257611f81611d10565b5b5092915050565b600081519050611f988161140e565b92915050565b600060208284031215611fb457611fb36113fa565b5b6000611fc284828501611f89565b91505092915050565b7f496e73756666696369656e7420746f6b656e2062616c616e636520696e20746860008201527f697320636f6e74726163742e0000000000000000000000000000000000000000602082015250565b6000612027602c8361191f565b915061203282611fcb565b604082019050919050565b600060208201905081810360008301526120568161201a565b9050919050565b60006040820190506120726000830185611969565b61207f60208301846118f5565b9392505050565b61208f81611aa3565b811461209a57600080fd5b50565b6000815190506120ac81612086565b92915050565b6000602082840312156120c8576120c76113fa565b5b60006120d68482850161209d565b91505092915050565b7f4e487b7100000000000000000000000000000000000000000000000000000000600052602260045260246000fd5b6000600282049050600182168061212657607f821691505b602082108103612139576121386120df565b5b50919050565b600061214a82611404565b915061215583611404565b925082820390508181111561216d5761216c611d10565b5b92915050565b7f4e487b7100000000000000000000000000000000000000000000000000000000600052603260045260246000fd5b60008190508160005260206000209050919050565b60006020601f8301049050919050565b600082821b905092915050565b6000600883026122047fffffffffffffffffffffffffffffffffffffffffffffffffffffffffffffffff826121c7565b61220e86836121c7565b95508019841693508086168417925050509392505050565b600061224161223c61223784611404565b611573565b611404565b9050919050565b6000819050919050565b61225b83612226565b61226f61226782612248565b8484546121d4565b825550505050565b600090565b612284612277565b61228f818484612252565b505050565b5b818110156122b3576122a860008261227c565b600181019050612295565b5050565b601f8211156122f8576122c9816121a2565b6122d2846121b7565b810160208510156122e1578190505b6122f56122ed856121b7565b830182612294565b50505b505050565b600082821c905092915050565b600061231b600019846008026122fd565b1980831691505092915050565b6000612334838361230a565b9150826002028217905092915050565b61234d826114a2565b67ffffffffffffffff8111156123665761236561171d565b5b612370825461210e565b61237b8282856122b7565b600060209050601f8311600181146123ae576000841561239c578287015190505b6123a68582612328565b86555061240e565b601f1984166123bc866121a2565b60005b828110156123e4578489015182556001820191506020850194506020810190506123bf565b8683101561240157848901516123fd601f89168261230a565b8355505b6001600288020188555050505b505050505050565b600060a08201905061242b60008301886118f5565b818103602083015261243d8187611930565b905061244c6040830186611969565b6124596060830185611969565b61246660808301846118f5565b9695505050505050565b7f4964206d7573742062652067726561746572207468616e20302e000000000000600082015250565b60006124a6601a8361191f565b91506124b182612470565b602082019050919050565b600060208201905081810360008301526124d581612499565b9050919050565b60006040820190506124f16000830185611969565b6124fe6020830184611969565b9392505050565b7f496e73756666696369656e7420616c6c6f77616e636520746f2073656e64207460008201527f6f6b656e732e0000000000000000000000000000000000000000000000000000602082015250565b600061256160268361191f565b915061256c82612505565b604082019050919050565b6000602082019050818103600083015261259081612554565b9050919050565b7f496e73756666696369656e7420746f6b656e2062616c616e63652e0000000000600082015250565b60006125cd601b8361191f565b91506125d882612597565b602082019050919050565b600060208201905081810360008301526125fc816125c0565b9050919050565b60006060820190506126186000830186611969565b6126256020830185611969565b61263260408301846118f5565b949350505050565b61264381611ad9565b82525050565b600060a08201905081810360008301526126638188611930565b905081810360208301526126778187611930565b905061268660408301866118f5565b612693606083018561263a565b6126a06080830184611969565b9695505050505050565b60006080820190506126bf6000830187611969565b81810360208301526126d18186611930565b905081810360408301526126e58185611930565b90506126f460608301846118f5565b95945050505050565b7f596f752061726520616c726561647920726567697374657265642e0000000000600082015250565b6000612733601b8361191f565b915061273e826126fd565b602082019050919050565b6000602082019050818103600083015261276281612726565b905091905056fe608060405234801561001057600080fd5b50604051611a50380380611a5083398181016040528101906100329190610594565b84848160039081610043919061085e565b508060049081610053919061085e565b50505081600560006101000a81548160ff021916908360ff16021790555061009b818360ff16600a6100859190610a92565b856100909190610add565b6100a560201b60201c565b5050505050610bde565b600073ffffffffffffffffffffffffffffffffffffffff168273ffffffffffffffffffffffffffffffffffffffff16036101175760006040517fec442f0500000000000000000000000000000000000000000000000000000000815260040161010e9190610b2e565b60405180910390fd5b6101296000838361012d60201b60201c565b5050565b600073ffffffffffffffffffffffffffffffffffffffff168373ffffffffffffffffffffffffffffffffffffffff160361017f5780600260008282546101739190610b49565b92505081905550610252565b60008060008573ffffffffffffffffffffffffffffffffffffffff1673ffffffffffffffffffffffffffffffffffffffff1681526020019081526020016000205490508181101561020b578381836040517fe450d38c00000000000000000000000000000000000000000000000000000000815260040161020293929190610b8c565b60405180910390fd5b8181036000808673ffffffffffffffffffffffffffffffffffffffff1673ffffffffffffffffffffffffffffffffffffffff16815260200190815260200160002081905550505b600073ffffffffffffffffffffffffffffffffffffffff168273ffffffffffffffffffffffffffffffffffffffff160361029b57806002600082825403925050819055506102e8565b806000808473ffffffffffffffffffffffffffffffffffffffff1673ffffffffffffffffffffffffffffffffffffffff168152602001908152602001600020600082825401925050819055505b8173ffffffffffffffffffffffffffffffffffffffff168373ffffffffffffffffffffffffffffffffffffffff167fddf252ad1be2c89b69c2b068fc378daa952ba7f163c4a11628f55a4df523b3ef836040516103459190610bc3565b60405180910390a3505050565b6000604051905090565b600080fd5b600080fd5b600080fd5b600080fd5b6000601f19601f8301169050919050565b7f4e487b7100000000000000000000000000000000000000000000000000000000600052604160045260246000fd5b6103b982610370565b810181811067ffffffffffffffff821117156103d8576103d7610381565b5b80604052505050565b60006103eb610352565b90506103f782826103b0565b919050565b600067ffffffffffffffff82111561041757610416610381565b5b61042082610370565b9050602081019050919050565b60005b8381101561044b578082015181840152602081019050610430565b60008484015250505050565b600061046a610465846103fc565b6103e1565b9050828152602081018484840111156104865761048561036b565b5b61049184828561042d565b509392505050565b600082601f8301126104ae576104ad610366565b5b81516104be848260208601610457565b91505092915050565b6000819050919050565b6104da816104c7565b81146104e557600080fd5b50565b6000815190506104f7816104d1565b92915050565b600060ff82169050919050565b610513816104fd565b811461051e57600080fd5b50565b6000815190506105308161050a565b92915050565b600073ffffffffffffffffffffffffffffffffffffffff82169050919050565b600061056182610536565b9050919050565b61057181610556565b811461057c57600080fd5b50565b60008151905061058e81610568565b92915050565b600080600080600060a086880312156105b0576105af61035c565b5b600086015167ffffffffffffffff8111156105ce576105cd610361565b5b6105da88828901610499565b955050602086015167ffffffffffffffff8111156105fb576105fa610361565b5b61060788828901610499565b9450506040610618888289016104e8565b935050606061062988828901610521565b925050608061063a8882890161057f565b9150509295509295909350565b600081519050919050565b7f4e487b7100000000000000000000000000000000000000000000000000000000600052602260045260246000fd5b6000600282049050600182168061069957607f821691505b6020821081036106ac576106ab610652565b5b50919050565b60008190508160005260206000209050919050565b60006020601f8301049050919050565b600082821b905092915050565b6000600883026107147fffffffffffffffffffffffffffffffffffffffffffffffffffffffffffffffff826106d7565b61071e86836106d7565b95508019841693508086168417925050509392505050565b6000819050919050565b600061075b610756610751846104c7565b610736565b6104c7565b9050919050565b6000819050919050565b61077583610740565b61078961078182610762565b8484546106e4565b825550505050565b600090565b61079e610791565b6107a981848461076c565b505050565b5b818110156107cd576107c2600082610796565b6001810190506107af565b5050565b601f821115610812576107e3816106b2565b6107ec846106c7565b810160208510156107fb578190505b61080f610807856106c7565b8301826107ae565b50505b505050565b600082821c905092915050565b600061083560001984600802610817565b1980831691505092915050565b600061084e8383610824565b9150826002028217905092915050565b61086782610647565b67ffffffffffffffff8111156108805761087f610381565b5b61088a8254610681565b6108958282856107d1565b600060209050601f8311600181146108c857600084156108b6578287015190505b6108c08582610842565b865550610928565b601f1984166108d6866106b2565b60005b828110156108fe578489015182556001820191506020850194506020810190506108d9565b8683101561091b5784890151610917601f891682610824565b8355505b6001600288020188555050505b505050505050565b7f4e487b7100000000000000000000000000000000000000000000000000000000600052601160045260246000fd5b60008160011c9050919050565b6000808291508390505b60018511156109b65780860481111561099257610991610930565b5b60018516156109a15780820291505b80810290506109af8561095f565b9450610976565b94509492505050565b6000826109cf5760019050610a8b565b816109dd5760009050610a8b565b81600181146109f357600281146109fd57610a2c565b6001915050610a8b565b60ff841115610a0f57610a0e610930565b5b8360020a915084821115610a2657610a25610930565b5b50610a8b565b5060208310610133831016604e8410600b8410161715610a615782820a905083811115610a5c57610a5b610930565b5b610a8b565b610a6e848484600161096c565b92509050818404811115610a8557610a84610930565b5b81810290505b9392505050565b6000610a9d826104c7565b9150610aa8836104c7565b9250610ad57fffffffffffffffffffffffffffffffffffffffffffffffffffffffffffffffff84846109bf565b905092915050565b6000610ae8826104c7565b9150610af3836104c7565b9250828202610b01816104c7565b91508282048414831517610b1857610b17610930565b5b5092915050565b610b2881610556565b82525050565b6000602082019050610b436000830184610b1f565b92915050565b6000610b54826104c7565b9150610b5f836104c7565b9250828201905080821115610b7757610b76610930565b5b92915050565b610b86816104c7565b82525050565b6000606082019050610ba16000830186610b1f565b610bae6020830185610b7d565b610bbb6040830184610b7d565b949350505050565b6000602082019050610bd86000830184610b7d565b92915050565b610e6380610bed6000396000f3fe608060405234801561001057600080fd5b50600436106100935760003560e01c8063313ce56711610066578063313ce5671461013457806370a082311461015257806395d89b4114610182578063a9059cbb146101a0578063dd62ed3e146101d057610093565b806306fdde0314610098578063095ea7b3146100b657806318160ddd146100e657806323b872dd14610104575b600080fd5b6100a0610200565b6040516100ad9190610ab7565b60405180910390f35b6100d060048036038101906100cb9190610b72565b610292565b6040516100dd9190610bcd565b60405180910390f35b6100ee6102b5565b6040516100fb9190610bf7565b60405180910390f35b61011e60048036038101906101199190610c12565b6102bf565b60405161012b9190610bcd565b60405180910390f35b61013c6102ee565b6040516101499190610c81565b60405180910390f35b61016c60048036038101906101679190610c9c565b610305565b6040516101799190610bf7565b60405180910390f35b61018a61034d565b6040516101979190610ab7565b60405180910390f35b6101ba60048036038101906101b59190610b72565b6103df565b6040516101c79190610bcd565b60405180910390f35b6101ea60048036038101906101e59190610cc9565b610402565b6040516101f79190610bf7565b60405180910390f35b60606003805461020f90610d38565b80601f016020809104026020016040519081016040528092919081815260200182805461023b90610d38565b80156102885780601f1061025d57610100808354040283529160200191610288565b820191906000526020600020905b81548152906001019060200180831161026b57829003601f168201915b5050505050905090565b60008061029d610489565b90506102aa818585610491565b600191505092915050565b6000600254905090565b6000806102ca610489565b90506102d78582856104a3565b6102e2858585610537565b60019150509392505050565b6000600560009054906101000a900460ff16905090565b60008060008373ffffffffffffffffffffffffffffffffffffffff1673ffffffffffffffffffffffffffffffffffffffff168152602001908152602001600020549050919050565b60606004805461035c90610d38565b80601f016020809104026020016040519081016040528092919081815260200182805461038890610d38565b80156103d55780601f106103aa576101008083540402835291602001916103d5565b820191906000526020600020905b8154815290600101906020018083116103b857829003601f168201915b5050505050905090565b6000806103ea610489565b90506103f7818585610537565b600191505092915050565b6000600160008473ffffffffffffffffffffffffffffffffffffffff1673ffffffffffffffffffffffffffffffffffffffff16815260200190815260200160002060008373ffffffffffffffffffffffffffffffffffffffff1673ffffffffffffffffffffffffffffffffffffffff16815260200190815260200160002054905092915050565b600033905090565b61049e838383600161062b565b505050565b60006104af8484610402565b90507fffffffffffffffffffffffffffffffffffffffffffffffffffffffffffffffff81146105315781811015610521578281836040517ffb8f41b200000000000000000000000000000000000000000000000000000000815260040161051893929190610d78565b60405180910390fd5b6105308484848403600061062b565b5b50505050565b600073ffffffffffffffffffffffffffffffffffffffff168373ffffffffffffffffffffffffffffffffffffffff16036105a95760006040517f96c6fd1e0000000000000000000000000000000000000000000000000000000081526004016105a09190610daf565b60405180910390fd5b600073ffffffffffffffffffffffffffffffffffffffff168273ffffffffffffffffffffffffffffffffffffffff160361061b5760006040517fec442f050000000000000000000000000000000000000000000000000000000081526004016106129190610daf565b60405180910390fd5b610626838383610802565b505050565b600073ffffffffffffffffffffffffffffffffffffffff168473ffffffffffffffffffffffffffffffffffffffff160361069d5760006040517fe602df050000000000000000000000000000000000000000000000000000000081526004016106949190610daf565b60405180910390fd5b600073ffffffffffffffffffffffffffffffffffffffff168373ffffffffffffffffffffffffffffffffffffffff160361070f5760006040517f94280d620000000000000000000000000000000000000000000000000000000081526004016107069190610daf565b60405180910390fd5b81600160008673ffffffffffffffffffffffffffffffffffffffff1673ffffffffffffffffffffffffffffffffffffffff16815260200190815260200160002060008573ffffffffffffffffffffffffffffffffffffffff1673ffffffffffffffffffffffffffffffffffffffff1681526020019081526020016000208190555080156107fc578273ffffffffffffffffffffffffffffffffffffffff168473ffffffffffffffffffffffffffffffffffffffff167f8c5be1e5ebec7d5bd14f71427d1e84f3dd0314c0f7b2291e5b200ac8c7c3b925846040516107f39190610bf7565b60405180910390a35b50505050565b600073ffffffffffffffffffffffffffffffffffffffff168373ffffffffffffffffffffffffffffffffffffffff16036108545780600260008282546108489190610df9565b92505081905550610927565b60008060008573ffffffffffffffffffffffffffffffffffffffff1673ffffffffffffffffffffffffffffffffffffffff168152602001908152602001600020549050818110156108e0578381836040517fe450d38c0000000000000000000000000000000000000000000000000000000081526004016108d793929190610d78565b60405180910390fd5b8181036000808673ffffffffffffffffffffffffffffffffffffffff1673ffffffffffffffffffffffffffffffffffffffff16815260200190815260200160002081905550505b600073ffffffffffffffffffffffffffffffffffffffff168273ffffffffffffffffffffffffffffffffffffffff160361097057806002600082825403925050819055506109bd565b806000808473ffffffffffffffffffffffffffffffffffffffff1673ffffffffffffffffffffffffffffffffffffffff168152602001908152602001600020600082825401925050819055505b8173ffffffffffffffffffffffffffffffffffffffff168373ffffffffffffffffffffffffffffffffffffffff167fddf252ad1be2c89b69c2b068fc378daa952ba7f163c4a11628f55a4df523b3ef83604051610a1a9190610bf7565b60405180910390a3505050565b600081519050919050565b600082825260208201905092915050565b60005b83811015610a61578082015181840152602081019050610a46565b60008484015250505050565b6000601f19601f8301169050919050565b6000610a8982610a27565b610a938185610a32565b9350610aa3818560208601610a43565b610aac81610a6d565b840191505092915050565b60006020820190508181036000830152610ad18184610a7e565b905092915050565b600080fd5b600073ffffffffffffffffffffffffffffffffffffffff82169050919050565b6000610b0982610ade565b9050919050565b610b1981610afe565b8114610b2457600080fd5b50565b600081359050610b3681610b10565b92915050565b6000819050919050565b610b4f81610b3c565b8114610b5a57600080fd5b50565b600081359050610b6c81610b46565b92915050565b60008060408385031215610b8957610b88610ad9565b5b6000610b9785828601610b27565b9250506020610ba885828601610b5d565b9150509250929050565b60008115159050919050565b610bc781610bb2565b82525050565b6000602082019050610be26000830184610bbe565b92915050565b610bf181610b3c565b82525050565b6000602082019050610c0c6000830184610be8565b92915050565b600080600060608486031215610c2b57610c2a610ad9565b5b6000610c3986828701610b27565b9350506020610c4a86828701610b27565b9250506040610c5b86828701610b5d565b9150509250925092565b600060ff82169050919050565b610c7b81610c65565b82525050565b6000602082019050610c966000830184610c72565b92915050565b600060208284031215610cb257610cb1610ad9565b5b6000610cc084828501610b27565b91505092915050565b60008060408385031215610ce057610cdf610ad9565b5b6000610cee85828601610b27565b9250506020610cff85828601610b27565b9150509250929050565b7f4e487b7100000000000000000000000000000000000000000000000000000000600052602260045260246000fd5b60006002820490506001821680610d5057607f821691505b602082108103610d6357610d62610d09565b5b50919050565b610d7281610afe565b82525050565b6000606082019050610d8d6000830186610d69565b610d9a6020830185610be8565b610da76040830184610be8565b949350505050565b6000602082019050610dc46000830184610d69565b92915050565b7f4e487b7100000000000000000000000000000000000000000000000000000000600052601160045260246000fd5b6000610e0482610b3c565b9150610e0f83610b3c565b9250828201905080821115610e2757610e26610dca565b5b9291505056fea2646970667358221220908dd8941b655d436180cd916c55246c03f278f2b051dbba4d4fb07d0b581ab764736f6c634300081b0033a26469706673582212206e18b0b4e68caba2c287429da471d2f8acf83b1f710b1667a68ab36c462164b764736f6c634300081b0033",
  "linkReferences": {},
  "deployedLinkReferences": {}
}