{
  "_format": "hh-sol-artifact-1",
  "contractName": "Voting",
  "sourceName": "contracts/Lock.sol",
  "abi": [
    {
      "inputs": [],
      "stateMutability": "nonpayable",
      "type": "constructor"
    },
    {
      "inputs": [
        {
          "internalType": "address",
          "name": "owner",
          "type": "address"
        }
      ],
      "name": "OwnableInvalidOwner",
      "type": "error"
    },
    {
      "inputs": [
        {
          "internalType": "address",
          "name": "account",
          "type": "address"
        }
      ],
      "name": "OwnableUnauthorizedAccount",
      "type": "error"
    },
    {
      "anonymous": false,
      "inputs": [
        {
          "indexed": false,
          "internalType": "uint256",
          "name": "candidateId",
          "type": "uint256"
        },
        {
          "indexed": false,
          "internalType": "string",
          "name": "name",
          "type": "string"
        },
        {
          "indexed": false,
          "internalType": "address",
          "name": "candidateAddress",
          "type": "address"
        },
        {
          "indexed": false,
          "internalType": "address",
          "name": "tokenAddress",
          "type": "address"
        },
        {
          "indexed": false,
          "internalType": "uint256",
          "name": "transferAmount",
          "type": "uint256"
        }
      ],
      "name": "CandidateAdded",
      "type": "event"
    },
    {
      "anonymous": false,
      "inputs": [
        {
          "indexed": true,
          "internalType": "address",
          "name": "previousOwner",
          "type": "address"
        },
        {
          "indexed": true,
          "internalType": "address",
          "name": "newOwner",
          "type": "address"
        }
      ],
      "name": "OwnershipTransferred",
      "type": "event"
    },
    {
      "anonymous": false,
      "inputs": [
        {
          "indexed": false,
          "internalType": "address",
          "name": "tokenAddress",
          "type": "address"
        },
        {
          "indexed": false,
          "internalType": "string",
          "name": "name",
          "type": "string"
        },
        {
          "indexed": false,
          "internalType": "string",
          "name": "symbol",
          "type": "string"
        },
        {
          "indexed": false,
          "internalType": "uint256",
          "name": "initialSupply",
          "type": "uint256"
        }
      ],
      "name": "TokenCreated",
      "type": "event"
    },
    {
      "anonymous": false,
      "inputs": [
        {
          "indexed": true,
          "internalType": "address",
          "name": "sender",
          "type": "address"
        },
        {
          "indexed": true,
          "internalType": "uint256",
          "name": "candidateId",
          "type": "uint256"
        },
        {
          "indexed": false,
          "internalType": "uint256",
          "name": "amount",
          "type": "uint256"
        }
      ],
      "name": "TokenSent",
      "type": "event"
    },
    {
      "anonymous": false,
      "inputs": [
        {
          "indexed": true,
          "internalType": "address",
          "name": "voter",
          "type": "address"
        },
        {
          "indexed": true,
          "internalType": "uint256",
          "name": "candidateId",
          "type": "uint256"
        }
      ],
      "name": "Voted",
      "type": "event"
    },
    {
      "inputs": [
        {
          "internalType": "string",
          "name": "_name",
          "type": "string"
        },
        {
          "internalType": "contract VotingToken",
          "name": "_token",
          "type": "address"
        },
        {
          "internalType": "uint256",
          "name": "_transferAmount",
          "type": "uint256"
        }
      ],
      "name": "addCandidate",
      "outputs": [],
      "stateMutability": "nonpayable",
      "type": "function"
    },
    {
      "inputs": [
        {
          "internalType": "uint256",
          "name": "",
          "type": "uint256"
        }
      ],
      "name": "candidates",
      "outputs": [
        {
          "internalType": "uint256",
          "name": "id",
          "type": "uint256"
        },
        {
          "internalType": "string",
          "name": "name",
          "type": "string"
        },
        {
          "internalType": "address",
          "name": "candidateAddress",
          "type": "address"
        },
        {
          "internalType": "uint256",
          "name": "voteCount",
          "type": "uint256"
        },
        {
          "internalType": "contract VotingToken",
          "name": "token",
          "type": "address"
        },
        {
          "internalType": "uint256",
          "name": "transferAmount",
          "type": "uint256"
        }
      ],
      "stateMutability": "view",
      "type": "function"
    },
    {
      "inputs": [],
      "name": "candidatesCount",
      "outputs": [
        {
          "internalType": "uint256",
          "name": "",
          "type": "uint256"
        }
      ],
      "stateMutability": "view",
      "type": "function"
    },
    {
      "inputs": [
        {
          "internalType": "string",
          "name": "name",
          "type": "string"
        },
        {
          "internalType": "string",
          "name": "symbol",
          "type": "string"
        },
        {
          "internalType": "uint256",
          "name": "initialSupply",
          "type": "uint256"
        },
        {
          "internalType": "uint8",
          "name": "decimal",
          "type": "uint8"
        }
      ],
      "name": "createToken",
      "outputs": [
        {
          "internalType": "address",
          "name": "",
          "type": "address"
        }
      ],
      "stateMutability": "nonpayable",
      "type": "function"
    },
    {
      "inputs": [],
      "name": "getCandidates",
      "outputs": [
        {
          "components": [
            {
              "internalType": "uint256",
              "name": "id",
              "type": "uint256"
            },
            {
              "internalType": "string",
              "name": "name",
              "type": "string"
            },
            {
              "internalType": "address",
              "name": "candidateAddress",
              "type": "address"
            },
            {
              "internalType": "uint256",
              "name": "voteCount",
              "type": "uint256"
            },
            {
              "internalType": "contract VotingToken",
              "name": "token",
              "type": "address"
            },
            {
              "internalType": "uint256",
              "name": "transferAmount",
              "type": "uint256"
            }
          ],
          "internalType": "struct Voting.Candidate[]",
          "name": "",
          "type": "tuple[]"
        }
      ],
      "stateMutability": "view",
      "type": "function"
    },
    {
      "inputs": [],
      "name": "getTokenAddress",
      "outputs": [
        {
          "internalType": "address",
          "name": "",
          "type": "address"
        }
      ],
      "stateMutability": "view",
      "type": "function"
    },
    {
      "inputs": [],
      "name": "owner",
      "outputs": [
        {
          "internalType": "address",
          "name": "",
          "type": "address"
        }
      ],
      "stateMutability": "view",
      "type": "function"
    },
    {
      "inputs": [],
      "name": "registerVoter",
      "outputs": [],
      "stateMutability": "nonpayable",
      "type": "function"
    },
    {
      "inputs": [
        {
          "internalType": "address",
          "name": "",
          "type": "address"
        }
      ],
      "name": "registeredVoters",
      "outputs": [
        {
          "internalType": "bool",
          "name": "",
          "type": "bool"
        }
      ],
      "stateMutability": "view",
      "type": "function"
    },
    {
      "inputs": [],
      "name": "renounceOwnership",
      "outputs": [],
      "stateMutability": "nonpayable",
      "type": "function"
    },
    {
      "inputs": [
        {
          "internalType": "uint256",
          "name": "_amount",
          "type": "uint256"
        },
        {
          "internalType": "uint256",
          "name": "_candidateId",
          "type": "uint256"
        }
      ],
      "name": "sendTokenToVoteContract",
      "outputs": [],
      "stateMutability": "nonpayable",
      "type": "function"
    },
    {
      "inputs": [
        {
          "internalType": "address",
          "name": "",
          "type": "address"
        }
      ],
      "name": "tokenOfAddress",
      "outputs": [
        {
          "internalType": "address",
          "name": "",
          "type": "address"
        }
      ],
      "stateMutability": "view",
      "type": "function"
    },
    {
      "inputs": [
        {
          "internalType": "address",
          "name": "newOwner",
          "type": "address"
        }
      ],
      "name": "transferOwnership",
      "outputs": [],
      "stateMutability": "nonpayable",
      "type": "function"
    },
    {
      "inputs": [
        {
          "internalType": "uint256",
          "name": "_candidateId",
          "type": "uint256"
        }
      ],
      "name": "vote",
      "outputs": [],
      "stateMutability": "nonpayable",
      "type": "function"
    },
    {
      "inputs": [
        {
          "internalType": "address",
          "name": "",
          "type": "address"
        }
      ],
      "name": "voters",
      "outputs": [
        {
          "internalType": "bool",
          "name": "",
          "type": "bool"
        }
      ],
      "stateMutability": "view",
      "type": "function"
    }
  ],
  "bytecode": "0x608060405234801561001057600080fd5b5033600073ffffffffffffffffffffffffffffffffffffffff168173ffffffffffffffffffffffffffffffffffffffff16036100845760006040517f1e4fbdf700000000000000000000000000000000000000000000000000000000815260040161007b919061019e565b60405180910390fd5b6100938161009960201b60201c565b506101b9565b60008060009054906101000a900473ffffffffffffffffffffffffffffffffffffffff169050816000806101000a81548173ffffffffffffffffffffffffffffffffffffffff021916908373ffffffffffffffffffffffffffffffffffffffff1602179055508173ffffffffffffffffffffffffffffffffffffffff168173ffffffffffffffffffffffffffffffffffffffff167f8be0079c531659141344cd1fd0a4f28419497f9722a3daafe3b4186f6b6457e060405160405180910390a35050565b600073ffffffffffffffffffffffffffffffffffffffff82169050919050565b60006101888261015d565b9050919050565b6101988161017d565b82525050565b60006020820190506101b3600083018461018f565b92915050565b614499806101c86000396000f3fe608060405234801561001057600080fd5b50600436106100f55760003560e01c8063513f715511610097578063a9ff6df111610066578063a9ff6df114610265578063b64acddd14610295578063ecb617d9146102c5578063f2fde38b146102cf576100f5565b8063513f7155146101f1578063715018a61461020d5780638da5cb5b14610217578063a3ec138d14610235576100f5565b80631da7631f116100d35780631da7631f1461015257806322f7195c146101825780632d35a8a21461019e5780633477ee2e146101bc576100f5565b80630121b93f146100fa57806306a49fce1461011657806310fe9ae814610134575b600080fd5b610114600480360381019061010f9190611693565b6102eb565b005b61011e61075c565b60405161012b919061194a565b60405180910390f35b61013c610987565b604051610149919061197b565b60405180910390f35b61016c600480360381019061016791906119c2565b610abb565b604051610179919061197b565b60405180910390f35b61019c60048036038101906101979190611b62565b610aee565b005b6101a6610c82565b6040516101b39190611be0565b60405180910390f35b6101d660048036038101906101d19190611693565b610c88565b6040516101e896959493929190611c54565b60405180910390f35b61020b60048036038101906102069190611cbc565b610d8c565b005b610215611195565b005b61021f6111a9565b60405161022c919061197b565b60405180910390f35b61024f600480360381019061024a91906119c2565b6111d2565b60405161025c9190611d17565b60405180910390f35b61027f600480360381019061027a91906119c2565b6111f2565b60405161028c9190611d17565b60405180910390f35b6102af60048036038101906102aa9190611d6b565b611212565b6040516102bc919061197b565b60405180910390f35b6102cd61131a565b005b6102e960048036038101906102e491906119c2565b611401565b005b600360003373ffffffffffffffffffffffffffffffffffffffff1673ffffffffffffffffffffffffffffffffffffffff16815260200190815260200160002060009054906101000a900460ff16610377576040517f08c379a000000000000000000000000000000000000000000000000000000000815260040161036e90611e56565b60405180910390fd5b600260003373ffffffffffffffffffffffffffffffffffffffff1673ffffffffffffffffffffffffffffffffffffffff16815260200190815260200160002060009054906101000a900460ff1615610404576040517f08c379a00000000000000000000000000000000000000000000000000000000081526004016103fb90611ec2565b60405180910390fd5b60008111801561041657506005548111155b610455576040517f08c379a000000000000000000000000000000000000000000000000000000000815260040161044c90611f2e565b60405180910390fd5b600060016000838152602001908152602001600020905080600301600081548092919061048190611f7d565b919050555060008160040160009054906101000a900473ffffffffffffffffffffffffffffffffffffffff1673ffffffffffffffffffffffffffffffffffffffff1663313ce5676040518163ffffffff1660e01b8152600401602060405180830381865afa1580156104f7573d6000803e3d6000fd5b505050506040513d601f19601f8201168201806040525081019061051b9190611fda565b600a610527919061213a565b82600501546105369190612185565b9050808260040160009054906101000a900473ffffffffffffffffffffffffffffffffffffffff1673ffffffffffffffffffffffffffffffffffffffff166370a08231306040518263ffffffff1660e01b8152600401610596919061197b565b602060405180830381865afa1580156105b3573d6000803e3d6000fd5b505050506040513d601f19601f820116820180604052508101906105d791906121dc565b1015610618576040517f08c379a000000000000000000000000000000000000000000000000000000000815260040161060f9061227b565b60405180910390fd5b8160040160009054906101000a900473ffffffffffffffffffffffffffffffffffffffff1673ffffffffffffffffffffffffffffffffffffffff1663a9059cbb33836040518363ffffffff1660e01b815260040161067792919061229b565b6020604051808303816000875af1158015610696573d6000803e3d6000fd5b505050506040513d601f19601f820116820180604052508101906106ba91906122f0565b506001600260003373ffffffffffffffffffffffffffffffffffffffff1673ffffffffffffffffffffffffffffffffffffffff16815260200190815260200160002060006101000a81548160ff021916908315150217905550823373ffffffffffffffffffffffffffffffffffffffff167f4d99b957a2bc29a30ebd96a7be8e68fe50a3c701db28a91436490b7d53870ca460405160405180910390a3505050565b6060600060055467ffffffffffffffff81111561077c5761077b6119f9565b5b6040519080825280602002602001820160405280156107b557816020015b6107a26115da565b81526020019060019003908161079a5790505b5090506000600190505b600554811161097f57600160008281526020019081526020016000206040518060c0016040529081600082015481526020016001820180546108009061234c565b80601f016020809104026020016040519081016040528092919081815260200182805461082c9061234c565b80156108795780601f1061084e57610100808354040283529160200191610879565b820191906000526020600020905b81548152906001019060200180831161085c57829003601f168201915b505050505081526020016002820160009054906101000a900473ffffffffffffffffffffffffffffffffffffffff1673ffffffffffffffffffffffffffffffffffffffff1673ffffffffffffffffffffffffffffffffffffffff168152602001600382015481526020016004820160009054906101000a900473ffffffffffffffffffffffffffffffffffffffff1673ffffffffffffffffffffffffffffffffffffffff1673ffffffffffffffffffffffffffffffffffffffff16815260200160058201548152505082600183610950919061237d565b81518110610961576109606123b1565b5b6020026020010181905250808061097790611f7d565b9150506107bf565b508091505090565b60008073ffffffffffffffffffffffffffffffffffffffff16600460003373ffffffffffffffffffffffffffffffffffffffff1673ffffffffffffffffffffffffffffffffffffffff16815260200190815260200160002060009054906101000a900473ffffffffffffffffffffffffffffffffffffffff1673ffffffffffffffffffffffffffffffffffffffff1603610a56576040517f08c379a0000000000000000000000000000000000000000000000000000000008152600401610a4d9061242c565b60405180910390fd5b600460003373ffffffffffffffffffffffffffffffffffffffff1673ffffffffffffffffffffffffffffffffffffffff16815260200190815260200160002060009054906101000a900473ffffffffffffffffffffffffffffffffffffffff16905090565b60046020528060005260406000206000915054906101000a900473ffffffffffffffffffffffffffffffffffffffff1681565b60056000815480929190610b0190611f7d565b91905055506040518060c0016040528060055481526020018481526020013373ffffffffffffffffffffffffffffffffffffffff168152602001600081526020018373ffffffffffffffffffffffffffffffffffffffff16815260200182815250600160006005548152602001908152602001600020600082015181600001556020820151816001019081610b9691906125ee565b5060408201518160020160006101000a81548173ffffffffffffffffffffffffffffffffffffffff021916908373ffffffffffffffffffffffffffffffffffffffff1602179055506060820151816003015560808201518160040160006101000a81548173ffffffffffffffffffffffffffffffffffffffff021916908373ffffffffffffffffffffffffffffffffffffffff16021790555060a082015181600501559050507fb84310c6bb026def586cd9a9e2b54a0cee433a2e3285811c237b0b2ea53b5ece60055484338585604051610c759594939291906126c0565b60405180910390a1505050565b60055481565b6001602052806000526040600020600091509050806000015490806001018054610cb19061234c565b80601f0160208091040260200160405190810160405280929190818152602001828054610cdd9061234c565b8015610d2a5780601f10610cff57610100808354040283529160200191610d2a565b820191906000526020600020905b815481529060010190602001808311610d0d57829003601f168201915b5050505050908060020160009054906101000a900473ffffffffffffffffffffffffffffffffffffffff16908060030154908060040160009054906101000a900473ffffffffffffffffffffffffffffffffffffffff16908060050154905086565b60008111610dcf576040517f08c379a0000000000000000000000000000000000000000000000000000000008152600401610dc690612766565b60405180910390fd5b600554811115610e14576040517f08c379a0000000000000000000000000000000000000000000000000000000008152600401610e0b90611f2e565b60405180910390fd5b600060016000838152602001908152602001600020905060008160040160009054906101000a900473ffffffffffffffffffffffffffffffffffffffff1673ffffffffffffffffffffffffffffffffffffffff1663313ce5676040518163ffffffff1660e01b8152600401602060405180830381865afa158015610e9c573d6000803e3d6000fd5b505050506040513d601f19601f82011682018060405250810190610ec09190611fda565b600a610ecc919061213a565b84610ed79190612185565b9050808260040160009054906101000a900473ffffffffffffffffffffffffffffffffffffffff1673ffffffffffffffffffffffffffffffffffffffff1663dd62ed3e33306040518363ffffffff1660e01b8152600401610f39929190612786565b602060405180830381865afa158015610f56573d6000803e3d6000fd5b505050506040513d601f19601f82011682018060405250810190610f7a91906121dc565b1015610fbb576040517f08c379a0000000000000000000000000000000000000000000000000000000008152600401610fb290612821565b60405180910390fd5b808260040160009054906101000a900473ffffffffffffffffffffffffffffffffffffffff1673ffffffffffffffffffffffffffffffffffffffff166370a08231336040518263ffffffff1660e01b8152600401611019919061197b565b602060405180830381865afa158015611036573d6000803e3d6000fd5b505050506040513d601f19601f8201168201806040525081019061105a91906121dc565b101561109b576040517f08c379a00000000000000000000000000000000000000000000000000000000081526004016110929061288d565b60405180910390fd5b8160040160009054906101000a900473ffffffffffffffffffffffffffffffffffffffff1673ffffffffffffffffffffffffffffffffffffffff166323b872dd3330846040518463ffffffff1660e01b81526004016110fc939291906128ad565b6020604051808303816000875af115801561111b573d6000803e3d6000fd5b505050506040513d601f19601f8201168201806040525081019061113f91906122f0565b50823373ffffffffffffffffffffffffffffffffffffffff167f0d13f5da5576e17f3ca76b16a95ca407faceadd9018e0087d32c2ba88e113e97836040516111879190611be0565b60405180910390a350505050565b61119d611487565b6111a7600061150e565b565b60008060009054906101000a900473ffffffffffffffffffffffffffffffffffffffff16905090565b60026020528060005260406000206000915054906101000a900460ff1681565b60036020528060005260406000206000915054906101000a900460ff1681565b60008085858585336040516112269061163c565b6112349594939291906128f3565b604051809103906000f080158015611250573d6000803e3d6000fd5b5090507f75d1eb2d61d7e210835bc16e78ac4d0e4f905c108a81852a6b68c4d46b4f40f3818787876040516112889493929190612954565b60405180910390a180600460003373ffffffffffffffffffffffffffffffffffffffff1673ffffffffffffffffffffffffffffffffffffffff16815260200190815260200160002060006101000a81548173ffffffffffffffffffffffffffffffffffffffff021916908373ffffffffffffffffffffffffffffffffffffffff16021790555080915050949350505050565b600360003373ffffffffffffffffffffffffffffffffffffffff1673ffffffffffffffffffffffffffffffffffffffff16815260200190815260200160002060009054906101000a900460ff16156113a7576040517f08c379a000000000000000000000000000000000000000000000000000000000815260040161139e906129f3565b60405180910390fd5b6001600360003373ffffffffffffffffffffffffffffffffffffffff1673ffffffffffffffffffffffffffffffffffffffff16815260200190815260200160002060006101000a81548160ff021916908315150217905550565b611409611487565b600073ffffffffffffffffffffffffffffffffffffffff168173ffffffffffffffffffffffffffffffffffffffff160361147b5760006040517f1e4fbdf7000000000000000000000000000000000000000000000000000000008152600401611472919061197b565b60405180910390fd5b6114848161150e565b50565b61148f6115d2565b73ffffffffffffffffffffffffffffffffffffffff166114ad6111a9565b73ffffffffffffffffffffffffffffffffffffffff161461150c576114d06115d2565b6040517f118cdaa7000000000000000000000000000000000000000000000000000000008152600401611503919061197b565b60405180910390fd5b565b60008060009054906101000a900473ffffffffffffffffffffffffffffffffffffffff169050816000806101000a81548173ffffffffffffffffffffffffffffffffffffffff021916908373ffffffffffffffffffffffffffffffffffffffff1602179055508173ffffffffffffffffffffffffffffffffffffffff168173ffffffffffffffffffffffffffffffffffffffff167f8be0079c531659141344cd1fd0a4f28419497f9722a3daafe3b4186f6b6457e060405160405180910390a35050565b600033905090565b6040518060c001604052806000815260200160608152602001600073ffffffffffffffffffffffffffffffffffffffff16815260200160008152602001600073ffffffffffffffffffffffffffffffffffffffff168152602001600081525090565b611a5080612a1483390190565b6000604051905090565b600080fd5b600080fd5b6000819050919050565b6116708161165d565b811461167b57600080fd5b50565b60008135905061168d81611667565b92915050565b6000602082840312156116a9576116a8611653565b5b60006116b78482850161167e565b91505092915050565b600081519050919050565b600082825260208201905092915050565b6000819050602082019050919050565b6116f58161165d565b82525050565b600081519050919050565b600082825260208201905092915050565b60005b8381101561173557808201518184015260208101905061171a565b60008484015250505050565b6000601f19601f8301169050919050565b600061175d826116fb565b6117678185611706565b9350611777818560208601611717565b61178081611741565b840191505092915050565b600073ffffffffffffffffffffffffffffffffffffffff82169050919050565b60006117b68261178b565b9050919050565b6117c6816117ab565b82525050565b6000819050919050565b60006117f16117ec6117e78461178b565b6117cc565b61178b565b9050919050565b6000611803826117d6565b9050919050565b6000611815826117f8565b9050919050565b6118258161180a565b82525050565b600060c08301600083015161184360008601826116ec565b506020830151848203602086015261185b8282611752565b915050604083015161187060408601826117bd565b50606083015161188360608601826116ec565b506080830151611896608086018261181c565b5060a08301516118a960a08601826116ec565b508091505092915050565b60006118c0838361182b565b905092915050565b6000602082019050919050565b60006118e0826116c0565b6118ea81856116cb565b9350836020820285016118fc856116dc565b8060005b85811015611938578484038952815161191985826118b4565b9450611924836118c8565b925060208a01995050600181019050611900565b50829750879550505050505092915050565b6000602082019050818103600083015261196481846118d5565b905092915050565b611975816117ab565b82525050565b6000602082019050611990600083018461196c565b92915050565b61199f816117ab565b81146119aa57600080fd5b50565b6000813590506119bc81611996565b92915050565b6000602082840312156119d8576119d7611653565b5b60006119e6848285016119ad565b91505092915050565b600080fd5b600080fd5b7f4e487b7100000000000000000000000000000000000000000000000000000000600052604160045260246000fd5b611a3182611741565b810181811067ffffffffffffffff82111715611a5057611a4f6119f9565b5b80604052505050565b6000611a63611649565b9050611a6f8282611a28565b919050565b600067ffffffffffffffff821115611a8f57611a8e6119f9565b5b611a9882611741565b9050602081019050919050565b82818337600083830152505050565b6000611ac7611ac284611a74565b611a59565b905082815260208101848484011115611ae357611ae26119f4565b5b611aee848285611aa5565b509392505050565b600082601f830112611b0b57611b0a6119ef565b5b8135611b1b848260208601611ab4565b91505092915050565b6000611b2f826117ab565b9050919050565b611b3f81611b24565b8114611b4a57600080fd5b50565b600081359050611b5c81611b36565b92915050565b600080600060608486031215611b7b57611b7a611653565b5b600084013567ffffffffffffffff811115611b9957611b98611658565b5b611ba586828701611af6565b9350506020611bb686828701611b4d565b9250506040611bc78682870161167e565b9150509250925092565b611bda8161165d565b82525050565b6000602082019050611bf56000830184611bd1565b92915050565b600082825260208201905092915050565b6000611c17826116fb565b611c218185611bfb565b9350611c31818560208601611717565b611c3a81611741565b840191505092915050565b611c4e8161180a565b82525050565b600060c082019050611c696000830189611bd1565b8181036020830152611c7b8188611c0c565b9050611c8a604083018761196c565b611c976060830186611bd1565b611ca46080830185611c45565b611cb160a0830184611bd1565b979650505050505050565b60008060408385031215611cd357611cd2611653565b5b6000611ce18582860161167e565b9250506020611cf28582860161167e565b9150509250929050565b60008115159050919050565b611d1181611cfc565b82525050565b6000602082019050611d2c6000830184611d08565b92915050565b600060ff82169050919050565b611d4881611d32565b8114611d5357600080fd5b50565b600081359050611d6581611d3f565b92915050565b60008060008060808587031215611d8557611d84611653565b5b600085013567ffffffffffffffff811115611da357611da2611658565b5b611daf87828801611af6565b945050602085013567ffffffffffffffff811115611dd057611dcf611658565b5b611ddc87828801611af6565b9350506040611ded8782880161167e565b9250506060611dfe87828801611d56565b91505092959194509250565b7f596f7520617265206e6f74207265676973746572656420746f20766f74652e00600082015250565b6000611e40601f83611bfb565b9150611e4b82611e0a565b602082019050919050565b60006020820190508181036000830152611e6f81611e33565b9050919050565b7f596f75206861766520616c726561647920766f7465642e000000000000000000600082015250565b6000611eac601783611bfb565b9150611eb782611e76565b602082019050919050565b60006020820190508181036000830152611edb81611e9f565b9050919050565b7f496e76616c69642063616e6469646174652049442e0000000000000000000000600082015250565b6000611f18601583611bfb565b9150611f2382611ee2565b602082019050919050565b60006020820190508181036000830152611f4781611f0b565b9050919050565b7f4e487b7100000000000000000000000000000000000000000000000000000000600052601160045260246000fd5b6000611f888261165d565b91507fffffffffffffffffffffffffffffffffffffffffffffffffffffffffffffffff8203611fba57611fb9611f4e565b5b600182019050919050565b600081519050611fd481611d3f565b92915050565b600060208284031215611ff057611fef611653565b5b6000611ffe84828501611fc5565b91505092915050565b60008160011c9050919050565b6000808291508390505b600185111561205e5780860481111561203a57612039611f4e565b5b60018516156120495780820291505b808102905061205785612007565b945061201e565b94509492505050565b6000826120775760019050612133565b816120855760009050612133565b816001811461209b57600281146120a5576120d4565b6001915050612133565b60ff8411156120b7576120b6611f4e565b5b8360020a9150848211156120ce576120cd611f4e565b5b50612133565b5060208310610133831016604e8410600b84101617156121095782820a90508381111561210457612103611f4e565b5b612133565b6121168484846001612014565b9250905081840481111561212d5761212c611f4e565b5b81810290505b9392505050565b60006121458261165d565b915061215083611d32565b925061217d7fffffffffffffffffffffffffffffffffffffffffffffffffffffffffffffffff8484612067565b905092915050565b60006121908261165d565b915061219b8361165d565b92508282026121a98161165d565b915082820484148315176121c0576121bf611f4e565b5b5092915050565b6000815190506121d681611667565b92915050565b6000602082840312156121f2576121f1611653565b5b6000612200848285016121c7565b91505092915050565b7f496e73756666696369656e7420746f6b656e2062616c616e636520696e20746860008201527f697320636f6e74726163742e0000000000000000000000000000000000000000602082015250565b6000612265602c83611bfb565b915061227082612209565b604082019050919050565b6000602082019050818103600083015261229481612258565b9050919050565b60006040820190506122b0600083018561196c565b6122bd6020830184611bd1565b9392505050565b6122cd81611cfc565b81146122d857600080fd5b50565b6000815190506122ea816122c4565b92915050565b60006020828403121561230657612305611653565b5b6000612314848285016122db565b91505092915050565b7f4e487b7100000000000000000000000000000000000000000000000000000000600052602260045260246000fd5b6000600282049050600182168061236457607f821691505b6020821081036123775761237661231d565b5b50919050565b60006123888261165d565b91506123938361165d565b92508282039050818111156123ab576123aa611f4e565b5b92915050565b7f4e487b7100000000000000000000000000000000000000000000000000000000600052603260045260246000fd5b7f546f6b656e206e6f7420637265617465642e0000000000000000000000000000600082015250565b6000612416601283611bfb565b9150612421826123e0565b602082019050919050565b6000602082019050818103600083015261244581612409565b9050919050565b60008190508160005260206000209050919050565b60006020601f8301049050919050565b600082821b905092915050565b6000600883026124ae7fffffffffffffffffffffffffffffffffffffffffffffffffffffffffffffffff82612471565b6124b88683612471565b95508019841693508086168417925050509392505050565b60006124eb6124e66124e18461165d565b6117cc565b61165d565b9050919050565b6000819050919050565b612505836124d0565b612519612511826124f2565b84845461247e565b825550505050565b600090565b61252e612521565b6125398184846124fc565b505050565b5b8181101561255d57612552600082612526565b60018101905061253f565b5050565b601f8211156125a2576125738161244c565b61257c84612461565b8101602085101561258b578190505b61259f61259785612461565b83018261253e565b50505b505050565b600082821c905092915050565b60006125c5600019846008026125a7565b1980831691505092915050565b60006125de83836125b4565b9150826002028217905092915050565b6125f7826116fb565b67ffffffffffffffff8111156126105761260f6119f9565b5b61261a825461234c565b612625828285612561565b600060209050601f8311600181146126585760008415612646578287015190505b61265085826125d2565b8655506126b8565b601f1984166126668661244c565b60005b8281101561268e57848901518255600182019150602085019450602081019050612669565b868310156126ab57848901516126a7601f8916826125b4565b8355505b6001600288020188555050505b505050505050565b600060a0820190506126d56000830188611bd1565b81810360208301526126e78187611c0c565b90506126f6604083018661196c565b612703606083018561196c565b6127106080830184611bd1565b9695505050505050565b7f4964206d7573742062652067726561746572207468616e20302e000000000000600082015250565b6000612750601a83611bfb565b915061275b8261271a565b602082019050919050565b6000602082019050818103600083015261277f81612743565b9050919050565b600060408201905061279b600083018561196c565b6127a8602083018461196c565b9392505050565b7f496e73756666696369656e7420616c6c6f77616e636520746f2073656e64207460008201527f6f6b656e732e0000000000000000000000000000000000000000000000000000602082015250565b600061280b602683611bfb565b9150612816826127af565b604082019050919050565b6000602082019050818103600083015261283a816127fe565b9050919050565b7f496e73756666696369656e7420746f6b656e2062616c616e63652e0000000000600082015250565b6000612877601b83611bfb565b915061288282612841565b602082019050919050565b600060208201905081810360008301526128a68161286a565b9050919050565b60006060820190506128c2600083018661196c565b6128cf602083018561196c565b6128dc6040830184611bd1565b949350505050565b6128ed81611d32565b82525050565b600060a082019050818103600083015261290d8188611c0c565b905081810360208301526129218187611c0c565b90506129306040830186611bd1565b61293d60608301856128e4565b61294a608083018461196c565b9695505050505050565b6000608082019050612969600083018761196c565b818103602083015261297b8186611c0c565b9050818103604083015261298f8185611c0c565b905061299e6060830184611bd1565b95945050505050565b7f596f752061726520616c726561647920726567697374657265642e0000000000600082015250565b60006129dd601b83611bfb565b91506129e8826129a7565b602082019050919050565b60006020820190508181036000830152612a0c816129d0565b905091905056fe608060405234801561001057600080fd5b50604051611a50380380611a5083398181016040528101906100329190610594565b84848160039081610043919061085e565b508060049081610053919061085e565b50505081600560006101000a81548160ff021916908360ff16021790555061009b818360ff16600a6100859190610a92565b856100909190610add565b6100a560201b60201c565b5050505050610bde565b600073ffffffffffffffffffffffffffffffffffffffff168273ffffffffffffffffffffffffffffffffffffffff16036101175760006040517fec442f0500000000000000000000000000000000000000000000000000000000815260040161010e9190610b2e565b60405180910390fd5b6101296000838361012d60201b60201c565b5050565b600073ffffffffffffffffffffffffffffffffffffffff168373ffffffffffffffffffffffffffffffffffffffff160361017f5780600260008282546101739190610b49565b92505081905550610252565b60008060008573ffffffffffffffffffffffffffffffffffffffff1673ffffffffffffffffffffffffffffffffffffffff1681526020019081526020016000205490508181101561020b578381836040517fe450d38c00000000000000000000000000000000000000000000000000000000815260040161020293929190610b8c565b60405180910390fd5b8181036000808673ffffffffffffffffffffffffffffffffffffffff1673ffffffffffffffffffffffffffffffffffffffff16815260200190815260200160002081905550505b600073ffffffffffffffffffffffffffffffffffffffff168273ffffffffffffffffffffffffffffffffffffffff160361029b57806002600082825403925050819055506102e8565b806000808473ffffffffffffffffffffffffffffffffffffffff1673ffffffffffffffffffffffffffffffffffffffff168152602001908152602001600020600082825401925050819055505b8173ffffffffffffffffffffffffffffffffffffffff168373ffffffffffffffffffffffffffffffffffffffff167fddf252ad1be2c89b69c2b068fc378daa952ba7f163c4a11628f55a4df523b3ef836040516103459190610bc3565b60405180910390a3505050565b6000604051905090565b600080fd5b600080fd5b600080fd5b600080fd5b6000601f19601f8301169050919050565b7f4e487b7100000000000000000000000000000000000000000000000000000000600052604160045260246000fd5b6103b982610370565b810181811067ffffffffffffffff821117156103d8576103d7610381565b5b80604052505050565b60006103eb610352565b90506103f782826103b0565b919050565b600067ffffffffffffffff82111561041757610416610381565b5b61042082610370565b9050602081019050919050565b60005b8381101561044b578082015181840152602081019050610430565b60008484015250505050565b600061046a610465846103fc565b6103e1565b9050828152602081018484840111156104865761048561036b565b5b61049184828561042d565b509392505050565b600082601f8301126104ae576104ad610366565b5b81516104be848260208601610457565b91505092915050565b6000819050919050565b6104da816104c7565b81146104e557600080fd5b50565b6000815190506104f7816104d1565b92915050565b600060ff82169050919050565b610513816104fd565b811461051e57600080fd5b50565b6000815190506105308161050a565b92915050565b600073ffffffffffffffffffffffffffffffffffffffff82169050919050565b600061056182610536565b9050919050565b61057181610556565b811461057c57600080fd5b50565b60008151905061058e81610568565b92915050565b600080600080600060a086880312156105b0576105af61035c565b5b600086015167ffffffffffffffff8111156105ce576105cd610361565b5b6105da88828901610499565b955050602086015167ffffffffffffffff8111156105fb576105fa610361565b5b61060788828901610499565b9450506040610618888289016104e8565b935050606061062988828901610521565b925050608061063a8882890161057f565b9150509295509295909350565b600081519050919050565b7f4e487b7100000000000000000000000000000000000000000000000000000000600052602260045260246000fd5b6000600282049050600182168061069957607f821691505b6020821081036106ac576106ab610652565b5b50919050565b60008190508160005260206000209050919050565b60006020601f8301049050919050565b600082821b905092915050565b6000600883026107147fffffffffffffffffffffffffffffffffffffffffffffffffffffffffffffffff826106d7565b61071e86836106d7565b95508019841693508086168417925050509392505050565b6000819050919050565b600061075b610756610751846104c7565b610736565b6104c7565b9050919050565b6000819050919050565b61077583610740565b61078961078182610762565b8484546106e4565b825550505050565b600090565b61079e610791565b6107a981848461076c565b505050565b5b818110156107cd576107c2600082610796565b6001810190506107af565b5050565b601f821115610812576107e3816106b2565b6107ec846106c7565b810160208510156107fb578190505b61080f610807856106c7565b8301826107ae565b50505b505050565b600082821c905092915050565b600061083560001984600802610817565b1980831691505092915050565b600061084e8383610824565b9150826002028217905092915050565b61086782610647565b67ffffffffffffffff8111156108805761087f610381565b5b61088a8254610681565b6108958282856107d1565b600060209050601f8311600181146108c857600084156108b6578287015190505b6108c08582610842565b865550610928565b601f1984166108d6866106b2565b60005b828110156108fe578489015182556001820191506020850194506020810190506108d9565b8683101561091b5784890151610917601f891682610824565b8355505b6001600288020188555050505b505050505050565b7f4e487b7100000000000000000000000000000000000000000000000000000000600052601160045260246000fd5b60008160011c9050919050565b6000808291508390505b60018511156109b65780860481111561099257610991610930565b5b60018516156109a15780820291505b80810290506109af8561095f565b9450610976565b94509492505050565b6000826109cf5760019050610a8b565b816109dd5760009050610a8b565b81600181146109f357600281146109fd57610a2c565b6001915050610a8b565b60ff841115610a0f57610a0e610930565b5b8360020a915084821115610a2657610a25610930565b5b50610a8b565b5060208310610133831016604e8410600b8410161715610a615782820a905083811115610a5c57610a5b610930565b5b610a8b565b610a6e848484600161096c565b92509050818404811115610a8557610a84610930565b5b81810290505b9392505050565b6000610a9d826104c7565b9150610aa8836104c7565b9250610ad57fffffffffffffffffffffffffffffffffffffffffffffffffffffffffffffffff84846109bf565b905092915050565b6000610ae8826104c7565b9150610af3836104c7565b9250828202610b01816104c7565b91508282048414831517610b1857610b17610930565b5b5092915050565b610b2881610556565b82525050565b6000602082019050610b436000830184610b1f565b92915050565b6000610b54826104c7565b9150610b5f836104c7565b9250828201905080821115610b7757610b76610930565b5b92915050565b610b86816104c7565b82525050565b6000606082019050610ba16000830186610b1f565b610bae6020830185610b7d565b610bbb6040830184610b7d565b949350505050565b6000602082019050610bd86000830184610b7d565b92915050565b610e6380610bed6000396000f3fe608060405234801561001057600080fd5b50600436106100935760003560e01c8063313ce56711610066578063313ce5671461013457806370a082311461015257806395d89b4114610182578063a9059cbb146101a0578063dd62ed3e146101d057610093565b806306fdde0314610098578063095ea7b3146100b657806318160ddd146100e657806323b872dd14610104575b600080fd5b6100a0610200565b6040516100ad9190610ab7565b60405180910390f35b6100d060048036038101906100cb9190610b72565b610292565b6040516100dd9190610bcd565b60405180910390f35b6100ee6102b5565b6040516100fb9190610bf7565b60405180910390f35b61011e60048036038101906101199190610c12565b6102bf565b60405161012b9190610bcd565b60405180910390f35b61013c6102ee565b6040516101499190610c81565b60405180910390f35b61016c60048036038101906101679190610c9c565b610305565b6040516101799190610bf7565b60405180910390f35b61018a61034d565b6040516101979190610ab7565b60405180910390f35b6101ba60048036038101906101b59190610b72565b6103df565b6040516101c79190610bcd565b60405180910390f35b6101ea60048036038101906101e59190610cc9565b610402565b6040516101f79190610bf7565b60405180910390f35b60606003805461020f90610d38565b80601f016020809104026020016040519081016040528092919081815260200182805461023b90610d38565b80156102885780601f1061025d57610100808354040283529160200191610288565b820191906000526020600020905b81548152906001019060200180831161026b57829003601f168201915b5050505050905090565b60008061029d610489565b90506102aa818585610491565b600191505092915050565b6000600254905090565b6000806102ca610489565b90506102d78582856104a3565b6102e2858585610537565b60019150509392505050565b6000600560009054906101000a900460ff16905090565b60008060008373ffffffffffffffffffffffffffffffffffffffff1673ffffffffffffffffffffffffffffffffffffffff168152602001908152602001600020549050919050565b60606004805461035c90610d38565b80601f016020809104026020016040519081016040528092919081815260200182805461038890610d38565b80156103d55780601f106103aa576101008083540402835291602001916103d5565b820191906000526020600020905b8154815290600101906020018083116103b857829003601f168201915b5050505050905090565b6000806103ea610489565b90506103f7818585610537565b600191505092915050565b6000600160008473ffffffffffffffffffffffffffffffffffffffff1673ffffffffffffffffffffffffffffffffffffffff16815260200190815260200160002060008373ffffffffffffffffffffffffffffffffffffffff1673ffffffffffffffffffffffffffffffffffffffff16815260200190815260200160002054905092915050565b600033905090565b61049e838383600161062b565b505050565b60006104af8484610402565b90507fffffffffffffffffffffffffffffffffffffffffffffffffffffffffffffffff81146105315781811015610521578281836040517ffb8f41b200000000000000000000000000000000000000000000000000000000815260040161051893929190610d78565b60405180910390fd5b6105308484848403600061062b565b5b50505050565b600073ffffffffffffffffffffffffffffffffffffffff168373ffffffffffffffffffffffffffffffffffffffff16036105a95760006040517f96c6fd1e0000000000000000000000000000000000000000000000000000000081526004016105a09190610daf565b60405180910390fd5b600073ffffffffffffffffffffffffffffffffffffffff168273ffffffffffffffffffffffffffffffffffffffff160361061b5760006040517fec442f050000000000000000000000000000000000000000000000000000000081526004016106129190610daf565b60405180910390fd5b610626838383610802565b505050565b600073ffffffffffffffffffffffffffffffffffffffff168473ffffffffffffffffffffffffffffffffffffffff160361069d5760006040517fe602df050000000000000000000000000000000000000000000000000000000081526004016106949190610daf565b60405180910390fd5b600073ffffffffffffffffffffffffffffffffffffffff168373ffffffffffffffffffffffffffffffffffffffff160361070f5760006040517f94280d620000000000000000000000000000000000000000000000000000000081526004016107069190610daf565b60405180910390fd5b81600160008673ffffffffffffffffffffffffffffffffffffffff1673ffffffffffffffffffffffffffffffffffffffff16815260200190815260200160002060008573ffffffffffffffffffffffffffffffffffffffff1673ffffffffffffffffffffffffffffffffffffffff1681526020019081526020016000208190555080156107fc578273ffffffffffffffffffffffffffffffffffffffff168473ffffffffffffffffffffffffffffffffffffffff167f8c5be1e5ebec7d5bd14f71427d1e84f3dd0314c0f7b2291e5b200ac8c7c3b925846040516107f39190610bf7565b60405180910390a35b50505050565b600073ffffffffffffffffffffffffffffffffffffffff168373ffffffffffffffffffffffffffffffffffffffff16036108545780600260008282546108489190610df9565b92505081905550610927565b60008060008573ffffffffffffffffffffffffffffffffffffffff1673ffffffffffffffffffffffffffffffffffffffff168152602001908152602001600020549050818110156108e0578381836040517fe450d38c0000000000000000000000000000000000000000000000000000000081526004016108d793929190610d78565b60405180910390fd5b8181036000808673ffffffffffffffffffffffffffffffffffffffff1673ffffffffffffffffffffffffffffffffffffffff16815260200190815260200160002081905550505b600073ffffffffffffffffffffffffffffffffffffffff168273ffffffffffffffffffffffffffffffffffffffff160361097057806002600082825403925050819055506109bd565b806000808473ffffffffffffffffffffffffffffffffffffffff1673ffffffffffffffffffffffffffffffffffffffff168152602001908152602001600020600082825401925050819055505b8173ffffffffffffffffffffffffffffffffffffffff168373ffffffffffffffffffffffffffffffffffffffff167fddf252ad1be2c89b69c2b068fc378daa952ba7f163c4a11628f55a4df523b3ef83604051610a1a9190610bf7565b60405180910390a3505050565b600081519050919050565b600082825260208201905092915050565b60005b83811015610a61578082015181840152602081019050610a46565b60008484015250505050565b6000601f19601f8301169050919050565b6000610a8982610a27565b610a938185610a32565b9350610aa3818560208601610a43565b610aac81610a6d565b840191505092915050565b60006020820190508181036000830152610ad18184610a7e565b905092915050565b600080fd5b600073ffffffffffffffffffffffffffffffffffffffff82169050919050565b6000610b0982610ade565b9050919050565b610b1981610afe565b8114610b2457600080fd5b50565b600081359050610b3681610b10565b92915050565b6000819050919050565b610b4f81610b3c565b8114610b5a57600080fd5b50565b600081359050610b6c81610b46565b92915050565b60008060408385031215610b8957610b88610ad9565b5b6000610b9785828601610b27565b9250506020610ba885828601610b5d565b9150509250929050565b60008115159050919050565b610bc781610bb2565b82525050565b6000602082019050610be26000830184610bbe565b92915050565b610bf181610b3c565b82525050565b6000602082019050610c0c6000830184610be8565b92915050565b600080600060608486031215610c2b57610c2a610ad9565b5b6000610c3986828701610b27565b9350506020610c4a86828701610b27565b9250506040610c5b86828701610b5d565b9150509250925092565b600060ff82169050919050565b610c7b81610c65565b82525050565b6000602082019050610c966000830184610c72565b92915050565b600060208284031215610cb257610cb1610ad9565b5b6000610cc084828501610b27565b91505092915050565b60008060408385031215610ce057610cdf610ad9565b5b6000610cee85828601610b27565b9250506020610cff85828601610b27565b9150509250929050565b7f4e487b7100000000000000000000000000000000000000000000000000000000600052602260045260246000fd5b60006002820490506001821680610d5057607f821691505b602082108103610d6357610d62610d09565b5b50919050565b610d7281610afe565b82525050565b6000606082019050610d8d6000830186610d69565b610d9a6020830185610be8565b610da76040830184610be8565b949350505050565b6000602082019050610dc46000830184610d69565b92915050565b7f4e487b7100000000000000000000000000000000000000000000000000000000600052601160045260246000fd5b6000610e0482610b3c565b9150610e0f83610b3c565b9250828201905080821115610e2757610e26610dca565b5b9291505056fea2646970667358221220aeb1da3cb083f1a59a2a723f026ef79a5a1ca417d898c5e9b038734e57f71d0d64736f6c634300081b0033a2646970667358221220ebad9af1533da264e5052a06e32d9208f047fd85f4d27c8ea04a3337a1ca263264736f6c634300081b0033",
  "linkReferences": {},
  "deployedLinkReferences": {}
}